{
  "contractName": "VotilityProtocol",
  "abi": [
    {
      "inputs": [],
      "stateMutability": "nonpayable",
      "type": "constructor"
    },
    {
      "anonymous": false,
      "inputs": [
        {
          "indexed": true,
          "internalType": "uint256",
          "name": "proposalId",
          "type": "uint256"
        },
        {
          "indexed": true,
          "internalType": "address",
          "name": "erc20VotingPower",
          "type": "address"
        },
        {
          "indexed": true,
          "internalType": "address",
          "name": "owner",
          "type": "address"
        }
      ],
      "name": "NewProposal",
      "type": "event"
    },
    {
      "anonymous": false,
      "inputs": [
        {
          "indexed": true,
          "internalType": "address",
          "name": "voter",
          "type": "address"
        },
        {
          "indexed": true,
          "internalType": "uint256",
          "name": "proposalId",
          "type": "uint256"
        },
        {
          "indexed": false,
          "internalType": "uint256",
          "name": "optionIndex",
          "type": "uint256"
        },
        {
          "indexed": false,
          "internalType": "bytes32",
          "name": "optionValue",
          "type": "bytes32"
        },
        {
          "indexed": false,
          "internalType": "uint256",
          "name": "weight",
          "type": "uint256"
        }
      ],
      "name": "NewVote",
      "type": "event"
    },
    {
      "anonymous": false,
      "inputs": [
        {
          "indexed": true,
          "internalType": "uint256",
          "name": "proposalId",
          "type": "uint256"
        },
        {
          "indexed": true,
          "internalType": "address",
          "name": "finisher",
          "type": "address"
        },
        {
          "indexed": false,
          "internalType": "uint256",
          "name": "winnerOptionIndex",
          "type": "uint256"
        },
        {
          "indexed": false,
          "internalType": "bytes32",
          "name": "winnerOptionValue",
          "type": "bytes32"
        }
      ],
      "name": "ProposalFinished",
      "type": "event"
    },
    {
      "anonymous": false,
      "inputs": [
        {
          "indexed": true,
          "internalType": "uint256",
          "name": "proposalId",
          "type": "uint256"
        },
        {
          "indexed": true,
          "internalType": "address",
          "name": "oldOwner",
          "type": "address"
        },
        {
          "indexed": true,
          "internalType": "address",
          "name": "newOwner",
          "type": "address"
        }
      ],
      "name": "ProposalOwnerChanged",
      "type": "event"
    },
    {
      "inputs": [
        {
          "internalType": "bytes32[]",
          "name": "data",
          "type": "bytes32[]"
        },
        {
          "internalType": "string",
          "name": "ipfsData",
          "type": "string"
        },
        {
          "internalType": "address",
          "name": "erc20VotingPower",
          "type": "address"
        },
        {
          "internalType": "address",
          "name": "targetContract",
          "type": "address"
        },
        {
          "internalType": "uint256",
          "name": "blockLimit",
          "type": "uint256"
        },
        {
          "internalType": "bytes32[]",
          "name": "options",
          "type": "bytes32[]"
        },
        {
          "internalType": "bool",
          "name": "onChain",
          "type": "bool"
        },
        {
          "internalType": "uint256",
          "name": "snapshotId",
          "type": "uint256"
        },
        {
          "internalType": "uint256",
          "name": "minimumQuorum",
          "type": "uint256"
        }
      ],
      "name": "addProposal",
      "outputs": [],
      "stateMutability": "nonpayable",
      "type": "function"
    },
    {
      "inputs": [],
      "name": "getProposalsCount",
      "outputs": [
        {
          "internalType": "uint256",
          "name": "",
          "type": "uint256"
        }
      ],
      "stateMutability": "view",
      "type": "function",
      "constant": true
    },
    {
      "inputs": [
        {
          "internalType": "uint256",
          "name": "index",
          "type": "uint256"
        }
      ],
      "name": "getFinishedProposalId",
      "outputs": [
        {
          "internalType": "uint256",
          "name": "",
          "type": "uint256"
        }
      ],
      "stateMutability": "view",
      "type": "function",
      "constant": true
    },
    {
      "inputs": [],
      "name": "getFinishedProposalsCount",
      "outputs": [
        {
          "internalType": "uint256",
          "name": "",
          "type": "uint256"
        }
      ],
      "stateMutability": "view",
      "type": "function",
      "constant": true
    },
    {
      "inputs": [
        {
          "internalType": "address",
          "name": "token",
          "type": "address"
        }
      ],
      "name": "getProposalsCountByERC20",
      "outputs": [
        {
          "internalType": "uint256",
          "name": "",
          "type": "uint256"
        }
      ],
      "stateMutability": "view",
      "type": "function",
      "constant": true
    },
    {
      "inputs": [
        {
          "internalType": "address",
          "name": "o",
          "type": "address"
        }
      ],
      "name": "getProposalsCountByOwner",
      "outputs": [
        {
          "internalType": "uint256",
          "name": "",
          "type": "uint256"
        }
      ],
      "stateMutability": "view",
      "type": "function",
      "constant": true
    },
    {
      "inputs": [
        {
          "internalType": "address",
          "name": "token",
          "type": "address"
        },
        {
          "internalType": "uint256",
          "name": "index",
          "type": "uint256"
        }
      ],
      "name": "getProposalIdByERC20",
      "outputs": [
        {
          "internalType": "uint256",
          "name": "",
          "type": "uint256"
        }
      ],
      "stateMutability": "view",
      "type": "function",
      "constant": true
    },
    {
      "inputs": [
        {
          "internalType": "address",
          "name": "ownerAddress",
          "type": "address"
        },
        {
          "internalType": "uint256",
          "name": "index",
          "type": "uint256"
        }
      ],
      "name": "getProposalIdByOwner",
      "outputs": [
        {
          "internalType": "uint256",
          "name": "",
          "type": "uint256"
        }
      ],
      "stateMutability": "view",
      "type": "function",
      "constant": true
    },
    {
      "inputs": [
        {
          "internalType": "uint256",
          "name": "proposalId",
          "type": "uint256"
        }
      ],
      "name": "getProposal",
      "outputs": [
        {
          "internalType": "uint256",
          "name": "id",
          "type": "uint256"
        },
        {
          "internalType": "bytes32[]",
          "name": "data",
          "type": "bytes32[]"
        },
        {
          "internalType": "string",
          "name": "ipfsData",
          "type": "string"
        },
        {
          "internalType": "address",
          "name": "erc20VotingPower",
          "type": "address"
        },
        {
          "internalType": "address",
          "name": "targetContract",
          "type": "address"
        },
        {
          "internalType": "address",
          "name": "votingOwner",
          "type": "address"
        },
        {
          "internalType": "uint256",
          "name": "blockLimit",
          "type": "uint256"
        },
        {
          "internalType": "bytes32[]",
          "name": "options",
          "type": "bytes32[]"
        },
        {
          "internalType": "bool",
          "name": "onChain",
          "type": "bool"
        },
        {
          "internalType": "uint256",
          "name": "snapshotId",
          "type": "uint256"
        },
        {
          "internalType": "bool",
          "name": "isFinished",
          "type": "bool"
        },
        {
          "internalType": "uint256",
          "name": "minimumQuorum",
          "type": "uint256"
        }
      ],
      "stateMutability": "view",
      "type": "function",
      "constant": true
    },
    {
      "inputs": [
        {
          "internalType": "uint256",
          "name": "proposalId",
          "type": "uint256"
        },
        {
          "internalType": "address",
          "name": "newOwner",
          "type": "address"
        }
      ],
      "name": "changeProposalOwner",
      "outputs": [],
      "stateMutability": "nonpayable",
      "type": "function"
    },
    {
      "inputs": [
        {
          "internalType": "uint256",
          "name": "proposalId",
          "type": "uint256"
        },
        {
          "internalType": "bytes32",
          "name": "option",
          "type": "bytes32"
        }
      ],
      "name": "vote",
      "outputs": [],
      "stateMutability": "nonpayable",
      "type": "function"
    },
    {
      "inputs": [
        {
          "internalType": "uint256",
          "name": "proposalId",
          "type": "uint256"
        },
        {
          "internalType": "uint256",
          "name": "option",
          "type": "uint256"
        }
      ],
      "name": "getVotesWeight",
      "outputs": [
        {
          "internalType": "uint256",
          "name": "",
          "type": "uint256"
        }
      ],
      "stateMutability": "view",
      "type": "function",
      "constant": true
    },
    {
      "inputs": [],
      "name": "getBurntTokens",
      "outputs": [
        {
          "internalType": "uint256",
          "name": "",
          "type": "uint256"
        }
      ],
      "stateMutability": "view",
      "type": "function",
      "constant": true
    },
    {
      "inputs": [],
      "name": "getVotes",
      "outputs": [
        {
          "internalType": "uint256",
          "name": "",
          "type": "uint256"
        }
      ],
      "stateMutability": "view",
      "type": "function",
      "constant": true
    },
    {
      "inputs": [
        {
          "internalType": "uint256",
          "name": "proposalId",
          "type": "uint256"
        }
      ],
      "name": "getProposalWeight",
      "outputs": [
        {
          "internalType": "uint256",
          "name": "",
          "type": "uint256"
        }
      ],
      "stateMutability": "view",
      "type": "function",
      "constant": true
    },
    {
      "inputs": [
        {
          "internalType": "uint256",
          "name": "proposalId",
          "type": "uint256"
        }
      ],
      "name": "finish",
      "outputs": [],
      "stateMutability": "nonpayable",
      "type": "function"
    },
    {
      "inputs": [
        {
          "internalType": "uint256",
          "name": "proposalId",
          "type": "uint256"
        }
      ],
      "name": "getWinnerOption",
      "outputs": [
        {
          "internalType": "uint256",
          "name": "optionIndex",
          "type": "uint256"
        },
        {
          "internalType": "bytes32",
          "name": "optionValue",
          "type": "bytes32"
        }
      ],
      "stateMutability": "view",
      "type": "function",
      "constant": true
    },
    {
      "inputs": [
        {
          "internalType": "uint256",
          "name": "proposalId",
          "type": "uint256"
        },
        {
          "internalType": "bytes32",
          "name": "optionValue",
          "type": "bytes32"
        }
      ],
      "name": "getOptionIndex",
      "outputs": [
        {
          "internalType": "uint256",
          "name": "",
          "type": "uint256"
        }
      ],
      "stateMutability": "view",
      "type": "function",
      "constant": true
    },
    {
      "inputs": [
        {
          "internalType": "uint256",
          "name": "proposalId",
          "type": "uint256"
        },
        {
          "internalType": "address",
          "name": "voter",
          "type": "address"
        }
      ],
      "name": "getVote",
      "outputs": [
        {
          "internalType": "uint256",
          "name": "optionIndex",
          "type": "uint256"
        },
        {
          "internalType": "bytes32",
          "name": "optionValue",
          "type": "bytes32"
        },
        {
          "internalType": "uint256",
          "name": "weight",
          "type": "uint256"
        },
        {
          "internalType": "bool",
          "name": "hasVoted",
          "type": "bool"
        }
      ],
      "stateMutability": "view",
      "type": "function",
      "constant": true
    },
    {
      "inputs": [
        {
          "internalType": "uint256",
          "name": "proposalId",
          "type": "uint256"
        }
      ],
      "name": "getVoteCount",
      "outputs": [
        {
          "internalType": "uint256",
          "name": "",
          "type": "uint256"
        }
      ],
      "stateMutability": "view",
      "type": "function",
      "constant": true
    },
    {
      "inputs": [],
      "name": "getBytes32",
      "outputs": [
        {
          "internalType": "bytes32",
          "name": "result",
          "type": "bytes32"
        }
      ],
      "stateMutability": "view",
      "type": "function",
      "constant": true
    },
    {
      "inputs": [
        {
          "internalType": "bytes32",
          "name": "input",
          "type": "bytes32"
        }
      ],
      "name": "getAddress",
      "outputs": [
        {
          "internalType": "address",
          "name": "result",
          "type": "address"
        }
      ],
      "stateMutability": "pure",
      "type": "function",
      "constant": true
    },
    {
      "inputs": [
        {
          "internalType": "bytes32",
          "name": "input",
          "type": "bytes32"
        }
      ],
      "name": "getInt",
      "outputs": [
        {
          "internalType": "uint256",
          "name": "result",
          "type": "uint256"
        }
      ],
      "stateMutability": "pure",
      "type": "function",
      "constant": true
    }
  ],
  "bytecode": "0x60806040526000600755600060095534801561001a57600080fd5b5033600860006101000a81548173ffffffffffffffffffffffffffffffffffffffff021916908373ffffffffffffffffffffffffffffffffffffffff160217905550612adf8061006b6000396000f3fe608060405234801561001057600080fd5b506004361061014d5760003560e01c806398e527d3116100c3578063c28c946e1161007c578063c28c946e1461073f578063c7f758a81461075d578063cb42e68c14610919578063d1b3d1f61461095b578063d353a1cb146109a4578063dc97d962146109d25761014d565b806398e527d3146104345780639b26294314610452578063a980505414610494578063ab9c7db514610622578063b2c2f2e814610684578063bc3f931f146106c65761014d565b806332b6ad4e1161011557806332b6ad4e1461029457806348274187146102b257806368bb8bb61461030a57806373fc58a6146103425780637c15736e1461039a5780638ef3d2b3146103e85761014d565b80630dc96015146101525780631b979241146101705780631f903037146101bc57806321f8a721146101da5780632fc7fa6914610232575b600080fd5b61015a610a14565b6040518082815260200191505060405180910390f35b6101a66004803603604081101561018657600080fd5b810190808035906020019092919080359060200190929190505050610a1e565b6040518082815260200191505060405180910390f35b6101c4610a44565b6040518082815260200191505060405180910390f35b610206600480360360208110156101f057600080fd5b8101908080359060200190929190505050610a69565b604051808273ffffffffffffffffffffffffffffffffffffffff16815260200191505060405180910390f35b61027e6004803603604081101561024857600080fd5b81019080803573ffffffffffffffffffffffffffffffffffffffff16906020019092919080359060200190929190505050610a76565b6040518082815260200191505060405180910390f35b61029c610adc565b6040518082815260200191505060405180910390f35b6102f4600480360360208110156102c857600080fd5b81019080803573ffffffffffffffffffffffffffffffffffffffff169060200190929190505050610ae6565b6040518082815260200191505060405180910390f35b6103406004803603604081101561032057600080fd5b810190808035906020019092919080359060200190929190505050610b32565b005b6103846004803603602081101561035857600080fd5b81019080803573ffffffffffffffffffffffffffffffffffffffff1690602001909291905050506111e0565b6040518082815260200191505060405180910390f35b6103e6600480360360408110156103b057600080fd5b8101908080359060200190929190803573ffffffffffffffffffffffffffffffffffffffff16906020019092919050505061122c565b005b61041e600480360360408110156103fe57600080fd5b810190808035906020019092919080359060200190929190505050611317565b6040518082815260200191505060405180910390f35b61043c6114ff565b6040518082815260200191505060405180910390f35b61047e6004803603602081101561046857600080fd5b810190808035906020019092919050505061150b565b6040518082815260200191505060405180910390f35b61062060048036036101208110156104ab57600080fd5b81019080803590602001906401000000008111156104c857600080fd5b8201836020820111156104da57600080fd5b803590602001918460208302840111640100000000831117156104fc57600080fd5b90919293919293908035906020019064010000000081111561051d57600080fd5b82018360208201111561052f57600080fd5b8035906020019184600183028401116401000000008311171561055157600080fd5b9091929391929390803573ffffffffffffffffffffffffffffffffffffffff169060200190929190803573ffffffffffffffffffffffffffffffffffffffff16906020019092919080359060200190929190803590602001906401000000008111156105bc57600080fd5b8201836020820111156105ce57600080fd5b803590602001918460208302840111640100000000831117156105f057600080fd5b9091929391929390803515159060200190929190803590602001909291908035906020019092919050505061152c565b005b61066e6004803603604081101561063857600080fd5b81019080803573ffffffffffffffffffffffffffffffffffffffff16906020019092919080359060200190929190505050611cec565b6040518082815260200191505060405180910390f35b6106b06004803603602081101561069a57600080fd5b8101908080359060200190929190505050611d52565b6040518082815260200191505060405180910390f35b610712600480360360408110156106dc57600080fd5b8101908080359060200190929190803573ffffffffffffffffffffffffffffffffffffffff169060200190929190505050611d72565b60405180858152602001848152602001838152602001821515815260200194505050505060405180910390f35b610747611dff565b6040518082815260200191505060405180910390f35b6107896004803603602081101561077357600080fd5b8101908080359060200190929190505050611e0c565b604051808d815260200180602001806020018c73ffffffffffffffffffffffffffffffffffffffff1681526020018b73ffffffffffffffffffffffffffffffffffffffff1681526020018a73ffffffffffffffffffffffffffffffffffffffff168152602001898152602001806020018815158152602001878152602001861515815260200185815260200184810384528f818151815260200191508051906020019060200280838360005b83811015610850578082015181840152602081019050610835565b5050505090500184810383528e818151815260200191508051906020019080838360005b8381101561088f578082015181840152602081019050610874565b50505050905090810190601f1680156108bc5780820380516001836020036101000a031916815260200191505b50848103825289818151815260200191508051906020019060200280838360005b838110156108f85780820151818401526020810190506108dd565b505050509050019f5050505050505050505050505050505060405180910390f35b6109456004803603602081101561092f57600080fd5b8101908080359060200190929190505050612058565b6040518082815260200191505060405180910390f35b6109876004803603602081101561097157600080fd5b8101908080359060200190929190505050612207565b604051808381526020018281526020019250505060405180910390f35b6109d0600480360360208110156109ba57600080fd5b81019080803590602001909291905050506122d4565b005b6109fe600480360360208110156109e857600080fd5b810190808035906020019092919050505061260a565b6040518082815260200191505060405180910390f35b6000600754905090565b600080600090506000610a318585612617565b8092508193505050819250505092915050565b600060603073ffffffffffffffffffffffffffffffffffffffff16901b60001b905090565b60008160001c9050919050565b6000600160008473ffffffffffffffffffffffffffffffffffffffff1673ffffffffffffffffffffffffffffffffffffffff1681526020019081526020016000208281548110610ac257fe5b90600052602060002090600c020160000154905092915050565b6000600954905090565b6000600260008373ffffffffffffffffffffffffffffffffffffffff1673ffffffffffffffffffffffffffffffffffffffff168152602001908152602001600020805490509050919050565b6000805490508210610bac576040517f08c379a00000000000000000000000000000000000000000000000000000000081526004018080602001828103825260108152602001807f494e56414c49445f50524f504f53414c0000000000000000000000000000000081525060200191505060405180910390fd5b600460003373ffffffffffffffffffffffffffffffffffffffff1673ffffffffffffffffffffffffffffffffffffffff168152602001908152602001600020600083815260200190815260200160002060050160009054906101000a900460ff1615610c80576040517f08c379a00000000000000000000000000000000000000000000000000000000081526004018080602001828103825260098152602001807f4841535f564f544544000000000000000000000000000000000000000000000081525060200191505060405180910390fd5b60008281548110610c8d57fe5b90600052602060002090600c020160080160009054906101000a900460ff16610d1e576040517f08c379a00000000000000000000000000000000000000000000000000000000081526004018080602001828103825260098152602001807f4f46465f434841494e000000000000000000000000000000000000000000000081525060200191505060405180910390fd5b60008281548110610d2b57fe5b90600052602060002090600c020160060154431115610db2576040517f08c379a00000000000000000000000000000000000000000000000000000000081526004018080602001828103825260138152602001807f494e56414c49445f424c4f434b5f4c494d49540000000000000000000000000081525060200191505060405180910390fd5b600080610dbf8484612617565b809250819350505080610e3a576040517f08c379a00000000000000000000000000000000000000000000000000000000081526004018080602001828103825260108152602001807f4f5054494f4e5f4e4f545f464f554e440000000000000000000000000000000081525060200191505060405180910390fd5b600080808681548110610e4957fe5b90600052602060002090600c0201905060008160030160009054906101000a900473ffffffffffffffffffffffffffffffffffffffff1690508073ffffffffffffffffffffffffffffffffffffffff16634ee2cd7e3384600901546040518363ffffffff1660e01b8152600401808373ffffffffffffffffffffffffffffffffffffffff1681526020018281526020019250505060206040518083038186803b158015610ef557600080fd5b505afa158015610f09573d6000803e3d6000fd5b505050506040513d6020811015610f1f57600080fd5b81019080805190602001909291905050509250610f3a61289c565b6040518060c001604052808981526020013373ffffffffffffffffffffffffffffffffffffffff16815260200187815260200188815260200185815260200160011515815250905080600460003373ffffffffffffffffffffffffffffffffffffffff1673ffffffffffffffffffffffffffffffffffffffff16815260200190815260200160002060008a81526020019081526020016000206000820151816000015560208201518160010160006101000a81548173ffffffffffffffffffffffffffffffffffffffff021916908373ffffffffffffffffffffffffffffffffffffffff16021790555060408201518160020155606082015181600301556080820151816004015560a08201518160050160006101000a81548160ff021916908315150217905550905050600560008981526020019081526020016000208190806001815401808255809150506001900390600052602060002090600602016000909190919091506000820151816000015560208201518160010160006101000a81548173ffffffffffffffffffffffffffffffffffffffff021916908373ffffffffffffffffffffffffffffffffffffffff16021790555060408201518160020155606082015181600301556080820151816004015560a08201518160050160006101000a81548160ff021916908315150217905550505083600660008a8152602001908152602001600020600088815260200190815260200160002060008282540192505081905550600760008154809291906001019190505550873373ffffffffffffffffffffffffffffffffffffffff167f1200a3b0be3c9a705e9c21e0c52b33183117700822582c866bff1fe429e6ad05888a8860405180848152602001838152602001828152602001935050505060405180910390a35050505050505050565b6000600160008373ffffffffffffffffffffffffffffffffffffffff1673ffffffffffffffffffffffffffffffffffffffff168152602001908152602001600020805490509050919050565b600080838154811061123a57fe5b90600052602060002090600c0201905060008160050160009054906101000a900473ffffffffffffffffffffffffffffffffffffffff169050828260050160006101000a81548173ffffffffffffffffffffffffffffffffffffffff021916908373ffffffffffffffffffffffffffffffffffffffff1602179055508273ffffffffffffffffffffffffffffffffffffffff168173ffffffffffffffffffffffffffffffffffffffff16857ff48c29fc425d8429b2aff0131af7e924e5ad6cea3da06447884ddb2fcefb99a860405160405180910390a450505050565b6000806000848154811061132757fe5b90600052602060002090600c0201905060008160030160009054906101000a900473ffffffffffffffffffffffffffffffffffffffff16905060008260030160009054906101000a900473ffffffffffffffffffffffffffffffffffffffff1690506000805b60056000898152602001908152602001600020805490508110156114f15786600560008a815260200190815260200160002082815481106113ca57fe5b90600052602060002090600602016002015414156114e4578273ffffffffffffffffffffffffffffffffffffffff16634ee2cd7e600560008b8152602001908152602001600020838154811061141c57fe5b906000526020600020906006020160010160009054906101000a900473ffffffffffffffffffffffffffffffffffffffff1687600901546040518363ffffffff1660e01b8152600401808373ffffffffffffffffffffffffffffffffffffffff1681526020018281526020019250505060206040518083038186803b1580156114a457600080fd5b505afa1580156114b8573d6000803e3d6000fd5b505050506040513d60208110156114ce57600080fd5b8101908080519060200190929190505050820191505b808060010191505061138d565b508094505050505092915050565b60008080549050905090565b60006003828154811061151a57fe5b90600052602060002001549050919050565b6115368882612697565b6115408787612797565b6115486128ed565b60405180610180016040528060008054905081526020018e8e80806020026020016040519081016040528093929190818152602001838360200280828437600081840152601f19601f8201169050808301925050505050505081526020018c8c8080601f016020809104026020016040519081016040528093929190818152602001838380828437600081840152601f19601f8201169050808301925050505050505081526020018a73ffffffffffffffffffffffffffffffffffffffff1681526020018973ffffffffffffffffffffffffffffffffffffffff1681526020013373ffffffffffffffffffffffffffffffffffffffff168152602001888152602001878780806020026020016040519081016040528093929190818152602001838360200280828437600081840152601f19601f820116905080830192505050505050508152602001851515815260200184815260200160001515815260200183815250905060008190806001815401808255809150506001900390600052602060002090600c0201600090919091909150600082015181600001556020820151816001019080519060200190611700929190612994565b50604082015181600201908051906020019061171d9291906129e1565b5060608201518160030160006101000a81548173ffffffffffffffffffffffffffffffffffffffff021916908373ffffffffffffffffffffffffffffffffffffffff16021790555060808201518160040160006101000a81548173ffffffffffffffffffffffffffffffffffffffff021916908373ffffffffffffffffffffffffffffffffffffffff16021790555060a08201518160050160006101000a81548173ffffffffffffffffffffffffffffffffffffffff021916908373ffffffffffffffffffffffffffffffffffffffff16021790555060c0820151816006015560e0820151816007019080519060200190611819929190612994565b506101008201518160080160006101000a81548160ff021916908315150217905550610120820151816009015561014082015181600a0160006101000a81548160ff02191690831515021790555061016082015181600b01555050600160008a73ffffffffffffffffffffffffffffffffffffffff1673ffffffffffffffffffffffffffffffffffffffff1681526020019081526020016000208190806001815401808255809150506001900390600052602060002090600c0201600090919091909150600082015181600001556020820151816001019080519060200190611903929190612994565b5060408201518160020190805190602001906119209291906129e1565b5060608201518160030160006101000a81548173ffffffffffffffffffffffffffffffffffffffff021916908373ffffffffffffffffffffffffffffffffffffffff16021790555060808201518160040160006101000a81548173ffffffffffffffffffffffffffffffffffffffff021916908373ffffffffffffffffffffffffffffffffffffffff16021790555060a08201518160050160006101000a81548173ffffffffffffffffffffffffffffffffffffffff021916908373ffffffffffffffffffffffffffffffffffffffff16021790555060c0820151816006015560e0820151816007019080519060200190611a1c929190612994565b506101008201518160080160006101000a81548160ff021916908315150217905550610120820151816009015561014082015181600a0160006101000a81548160ff02191690831515021790555061016082015181600b01555050600260003373ffffffffffffffffffffffffffffffffffffffff1673ffffffffffffffffffffffffffffffffffffffff1681526020019081526020016000208190806001815401808255809150506001900390600052602060002090600c0201600090919091909150600082015181600001556020820151816001019080519060200190611b06929190612994565b506040820151816002019080519060200190611b239291906129e1565b5060608201518160030160006101000a81548173ffffffffffffffffffffffffffffffffffffffff021916908373ffffffffffffffffffffffffffffffffffffffff16021790555060808201518160040160006101000a81548173ffffffffffffffffffffffffffffffffffffffff021916908373ffffffffffffffffffffffffffffffffffffffff16021790555060a08201518160050160006101000a81548173ffffffffffffffffffffffffffffffffffffffff021916908373ffffffffffffffffffffffffffffffffffffffff16021790555060c0820151816006015560e0820151816007019080519060200190611c1f929190612994565b506101008201518160080160006101000a81548160ff021916908315150217905550610120820151816009015561014082015181600a0160006101000a81548160ff02191690831515021790555061016082015181600b015550503373ffffffffffffffffffffffffffffffffffffffff16816060015173ffffffffffffffffffffffffffffffffffffffff1682600001517f4c8033652a83d28932764a69975304c3acb70295a0f31e86eced53c91a22c61460405160405180910390a450505050505050505050505050565b6000600260008473ffffffffffffffffffffffffffffffffffffffff1673ffffffffffffffffffffffffffffffffffffffff1681526020019081526020016000208281548110611d3857fe5b90600052602060002090600c020160000154905092915050565b600060056000838152602001908152602001600020805490509050919050565b6000806000806000600460008773ffffffffffffffffffffffffffffffffffffffff1673ffffffffffffffffffffffffffffffffffffffff168152602001908152602001600020600088815260200190815260200160002090508060020154816003015482600401548360050160009054906101000a900460ff1694509450945094505092959194509250565b6000600380549050905090565b600060608060008060008060606000806000806000808e81548110611e2d57fe5b90600052602060002090600c02019050806000015481600101826002018360030160009054906101000a900473ffffffffffffffffffffffffffffffffffffffff168460040160009054906101000a900473ffffffffffffffffffffffffffffffffffffffff168560050160009054906101000a900473ffffffffffffffffffffffffffffffffffffffff168660060154876007018860080160009054906101000a900460ff1689600901548a600a0160009054906101000a900460ff168b600b01548a805480602002602001604051908101604052809291908181526020018280548015611f3b57602002820191906000526020600020905b815481526020019060010190808311611f27575b50505050509a50898054600181600116156101000203166002900480601f016020809104026020016040519081016040528092919081815260200182805460018160011615610100020316600290048015611fd75780601f10611fac57610100808354040283529160200191611fd7565b820191906000526020600020905b815481529060010190602001808311611fba57829003601f168201915b505050505099508480548060200260200160405190810160405280929190818152602001828054801561202957602002820191906000526020600020905b815481526020019060010190808311612015575b505050505094509c509c509c509c509c509c509c509c509c509c509c509c505091939597999b5091939597999b565b6000806000838154811061206857fe5b90600052602060002090600c0201905060008160030160009054906101000a900473ffffffffffffffffffffffffffffffffffffffff16905060008260030160009054906101000a900473ffffffffffffffffffffffffffffffffffffffff1690506000805b60056000888152602001908152602001600020805490508110156121fa578273ffffffffffffffffffffffffffffffffffffffff16634ee2cd7e600560008a8152602001908152602001600020838154811061212657fe5b906000526020600020906006020160010160009054906101000a900473ffffffffffffffffffffffffffffffffffffffff1687600901546040518363ffffffff1660e01b8152600401808373ffffffffffffffffffffffffffffffffffffffff1681526020018281526020019250505060206040518083038186803b1580156121ae57600080fd5b505afa1580156121c2573d6000803e3d6000fd5b505050506040513d60208110156121d857600080fd5b81019080805190602001909291905050508201915080806001019150506120ce565b5080945050505050919050565b600080600080848154811061221857fe5b90600052602060002090600c020190506000808060001b90506000805b84600701805490508110156122c45781600660008a815260200190815260200160002060008381526020019081526020016000205411156122b7576006600089815260200190815260200160002060008281526020019081526020016000205491508093508460070181815481106122a957fe5b906000526020600020015492505b8080600101915050612235565b5082829550955050505050915091565b600081815481106122e157fe5b90600052602060002090600c020160060154431015612368576040517f08c379a00000000000000000000000000000000000000000000000000000000081526004018080602001828103825260138152602001807f494e56414c49445f424c4f434b5f4c494d49540000000000000000000000000081525060200191505060405180910390fd5b60008061237483612207565b9150915060016000848154811061238757fe5b90600052602060002090600c0201600a0160006101000a81548160ff0219169083151502179055506003839080600181540180825580915050600190039060005260206000200160009091909190915055600073ffffffffffffffffffffffffffffffffffffffff16600084815481106123fd57fe5b90600052602060002090600c020160040160009054906101000a900473ffffffffffffffffffffffffffffffffffffffff1673ffffffffffffffffffffffffffffffffffffffff16146125ae57600080848154811061245857fe5b90600052602060002090600c020160040160009054906101000a900473ffffffffffffffffffffffffffffffffffffffff1690508073ffffffffffffffffffffffffffffffffffffffff1663f113976e3386600088815481106124b757fe5b90600052602060002090600c020160010187876040518663ffffffff1660e01b8152600401808673ffffffffffffffffffffffffffffffffffffffff16815260200185815260200180602001848152602001838152602001828103825285818154815260200191508054801561254c57602002820191906000526020600020905b815481526020019060010190808311612538575b50509650505050505050602060405180830381600087803b15801561257057600080fd5b505af1158015612584573d6000803e3d6000fd5b505050506040513d602081101561259a57600080fd5b810190808051906020019092919050505050505b3373ffffffffffffffffffffffffffffffffffffffff16837fda694de7cd2a3a04fc113f0107a2b6a1de742b71327bd1c9a1e49bfbe1e60d588484604051808381526020018281526020019250505060405180910390a3505050565b60008160001c9050919050565b600080600080858154811061262857fe5b90600052602060002090600c0201905060005b8160070180549050811015612686578482600701828154811061265a57fe5b9060005260206000200154141561267957806001935093505050612690565b808060010191505061263b565b5060008092509250505b9250929050565b6000829050818173ffffffffffffffffffffffffffffffffffffffff166318160ddd6040518163ffffffff1660e01b815260040160206040518083038186803b1580156126e357600080fd5b505afa1580156126f7573d6000803e3d6000fd5b505050506040513d602081101561270d57600080fd5b81019080805190602001909291905050501015612792576040517f08c379a00000000000000000000000000000000000000000000000000000000081526004018080602001828103825260168152602001807f494e56414c49445f4d494e494d554d5f51554f52554d0000000000000000000081525060200191505060405180910390fd5b505050565b6000829050818173ffffffffffffffffffffffffffffffffffffffff1663cca2e81c6040518163ffffffff1660e01b815260040160206040518083038186803b1580156127e357600080fd5b505afa1580156127f7573d6000803e3d6000fd5b505050506040513d602081101561280d57600080fd5b810190808051906020019092919050505060ff1643011115612897576040517f08c379a00000000000000000000000000000000000000000000000000000000081526004018080602001828103825260138152602001807f494e56414c49445f424c4f434b5f4c494d49540000000000000000000000000081525060200191505060405180910390fd5b505050565b6040518060c0016040528060008152602001600073ffffffffffffffffffffffffffffffffffffffff1681526020016000815260200160008019168152602001600081526020016000151581525090565b604051806101800160405280600081526020016060815260200160608152602001600073ffffffffffffffffffffffffffffffffffffffff168152602001600073ffffffffffffffffffffffffffffffffffffffff168152602001600073ffffffffffffffffffffffffffffffffffffffff168152602001600081526020016060815260200160001515815260200160008152602001600015158152602001600081525090565b8280548282559060005260206000209081019282156129d0579160200282015b828111156129cf5782518255916020019190600101906129b4565b5b5090506129dd9190612a6f565b5090565b828054600181600116156101000203166002900490600052602060002090601f016020900481019282612a175760008555612a5e565b82601f10612a3057805160ff1916838001178555612a5e565b82800160010185558215612a5e579182015b82811115612a5d578251825591602001919060010190612a42565b5b509050612a6b9190612a8c565b5090565b5b80821115612a88576000816000905550600101612a70565b5090565b5b80821115612aa5576000816000905550600101612a8d565b509056fea2646970667358221220ff5fdaaf6ba20aa885406dd47a5215cc072834a7cb16c32f8587c6e7b760979164736f6c63430007040033",
  "immutableReferences": {},
  "source": "// SPDX-License-Identifier: MIT\npragma solidity >=0.6.0 <0.9.0;\n\nimport \"@openzeppelin/contracts/token/ERC20/IERC20.sol\";\nimport \"@openzeppelin/contracts/token/ERC20/ERC20Snapshot.sol\";\n\nimport \"./IVotilityReceiver.sol\";\n\ncontract VotilityProtocol {\n    struct Proposal {\n        uint256 id;\n        bytes32[] data;\n        string ipfsData;\n        address erc20VotingPower;\n        address targetContract;\n        address votingOwner;\n        uint256 blockLimit;\n        bytes32[] options;\n        bool onChain;\n        uint256 snapshotId;\n        bool isFinished;\n        uint256 minimumQuorum;\n    }\n\n    struct Vote {\n        uint256 proposalId;\n        address voter;\n        uint256 optionIndex;\n        bytes32 optionValue;\n        uint256 weight;\n        bool hasVoted;\n    }\n\n    Proposal[] private proposals;\n    mapping(address => Proposal[]) private proposalsByERC20;\n    mapping(address => Proposal[]) private proposalsByOwner;\n    uint256[] private finishedProposals;\n\n    mapping(address => mapping(uint256 => Vote)) private votesByAddress;\n    mapping(uint256 => Vote[]) private votesByProposals;\n    mapping(uint256 => mapping(uint256 => uint256)) private votesByOptions;\n    uint256 private votes = 0;\n\n    address private owner;\n\n    uint256 private burntTokens = 0;\n\n    event NewProposal(\n        uint256 indexed proposalId,\n        address indexed erc20VotingPower,\n        address indexed owner\n    );\n\n    event ProposalFinished(\n        uint256 indexed proposalId,\n        address indexed finisher,\n        uint256 winnerOptionIndex,\n        bytes32 winnerOptionValue\n    );\n\n    event ProposalOwnerChanged(\n        uint256 indexed proposalId,\n        address indexed oldOwner,\n        address indexed newOwner\n    );\n    event NewVote(\n        address indexed voter,\n        uint256 indexed proposalId,\n        uint256 optionIndex,\n        bytes32 optionValue,\n        uint256 weight\n    );\n\n    constructor() {\n        owner = msg.sender;\n    }\n\n    function verifySupply(address erc20VotingPower, uint256 minimumQuorum)\n        private\n        view\n    {\n        IERC20 token = IERC20(erc20VotingPower);\n        require(token.totalSupply() >= minimumQuorum, \"INVALID_MINIMUM_QUORUM\");\n    }\n\n    function verityBlockLimit(address targetContract, uint256 blockLimit)\n        private\n        view\n    {\n        IVotilityReceiver target = IVotilityReceiver(targetContract);\n        require(\n            block.number + target.getMinimumBlockLimitInterval() <= blockLimit,\n            \"INVALID_BLOCK_LIMIT\"\n        );\n    }\n\n    function addProposal(\n        bytes32[] calldata data,\n        string calldata ipfsData,\n        address erc20VotingPower,\n        address targetContract,\n        uint256 blockLimit,\n        bytes32[] calldata options,\n        bool onChain,\n        uint256 snapshotId,\n        uint256 minimumQuorum\n    ) public {\n        verifySupply(erc20VotingPower, minimumQuorum);\n        verityBlockLimit(targetContract, blockLimit);\n\n        Proposal memory proposal =\n            Proposal(\n                proposals.length,\n                data,\n                ipfsData,\n                erc20VotingPower,\n                targetContract,\n                msg.sender,\n                blockLimit,\n                options,\n                onChain,\n                snapshotId,\n                false,\n                minimumQuorum\n            );\n\n        proposals.push(proposal);\n        proposalsByERC20[erc20VotingPower].push(proposal);\n        proposalsByOwner[msg.sender].push(proposal);\n\n        emit NewProposal(proposal.id, proposal.erc20VotingPower, msg.sender);\n    }\n\n    function getProposalsCount() public view returns (uint256) {\n        return proposals.length;\n    }\n\n    function getFinishedProposalId(uint256 index)\n        public\n        view\n        returns (uint256)\n    {\n        return finishedProposals[index];\n    }\n\n    function getFinishedProposalsCount() public view returns (uint256) {\n        return finishedProposals.length;\n    }\n\n    function getProposalsCountByERC20(address token)\n        public\n        view\n        returns (uint256)\n    {\n        return proposalsByERC20[token].length;\n    }\n\n    function getProposalsCountByOwner(address o) public view returns (uint256) {\n        return proposalsByOwner[o].length;\n    }\n\n    function getProposalIdByERC20(address token, uint256 index)\n        public\n        view\n        returns (uint256)\n    {\n        return proposalsByERC20[token][index].id;\n    }\n\n    function getProposalIdByOwner(address ownerAddress, uint256 index)\n        public\n        view\n        returns (uint256)\n    {\n        return proposalsByOwner[ownerAddress][index].id;\n    }\n\n    function getProposal(uint256 proposalId)\n        public\n        view\n        returns (\n            uint256 id,\n            bytes32[] memory data,\n            string memory ipfsData,\n            address erc20VotingPower,\n            address targetContract,\n            address votingOwner,\n            uint256 blockLimit,\n            bytes32[] memory options,\n            bool onChain,\n            uint256 snapshotId,\n            bool isFinished,\n            uint256 minimumQuorum\n        )\n    {\n        Proposal storage proposal = proposals[proposalId];\n\n        return (\n            proposal.id,\n            proposal.data,\n            proposal.ipfsData,\n            proposal.erc20VotingPower,\n            proposal.targetContract,\n            proposal.votingOwner,\n            proposal.blockLimit,\n            proposal.options,\n            proposal.onChain,\n            proposal.snapshotId,\n            proposal.isFinished,\n            proposal.minimumQuorum\n        );\n    }\n\n    function changeProposalOwner(uint256 proposalId, address newOwner) public {\n        Proposal storage p = proposals[proposalId];\n        address oldOwner = p.votingOwner;\n        p.votingOwner = newOwner;\n\n        emit ProposalOwnerChanged(proposalId, oldOwner, newOwner);\n    }\n\n    function _getOptionsIndex(uint256 proposalId, bytes32 option)\n        private\n        view\n        returns (uint256, bool)\n    {\n        Proposal storage proposal = proposals[proposalId];\n\n        for (uint256 i = 0; i < proposal.options.length; i++) {\n            if (proposal.options[i] == option) {\n                return (i, true);\n            }\n        }\n\n        return (0, false);\n    }\n\n    function vote(uint256 proposalId, bytes32 option) public {\n        require(proposalId < proposals.length, \"INVALID_PROPOSAL\");\n        require(!votesByAddress[msg.sender][proposalId].hasVoted, \"HAS_VOTED\");\n        require(proposals[proposalId].onChain, \"OFF_CHAIN\");\n        require(\n            block.number <= proposals[proposalId].blockLimit,\n            \"INVALID_BLOCK_LIMIT\"\n        );\n\n        uint256 optionIndex = 0;\n        bool found = false;\n\n        (optionIndex, found) = _getOptionsIndex(proposalId, option);\n\n        require(found, \"OPTION_NOT_FOUND\");\n\n        uint256 weight = 0;\n        Proposal storage proposal = proposals[proposalId];\n\n        ERC20Snapshot token = ERC20Snapshot(proposal.erc20VotingPower);\n        weight = token.balanceOfAt(msg.sender, proposal.snapshotId);\n\n        Vote memory newVote =\n            Vote(proposalId, msg.sender, optionIndex, option, weight, true);\n\n        votesByAddress[msg.sender][proposalId] = newVote;\n        votesByProposals[proposalId].push(newVote);\n        votesByOptions[proposalId][optionIndex] += weight;\n\n        votes++;\n\n        emit NewVote(msg.sender, proposalId, optionIndex, option, weight);\n    }\n\n    function getVotesWeight(uint256 proposalId, uint256 option)\n        public\n        view\n        returns (uint256)\n    {\n        Proposal storage proposal = proposals[proposalId];\n        IERC20 token = IERC20(proposal.erc20VotingPower);\n        ERC20Snapshot snapshotedToken =\n            ERC20Snapshot(proposal.erc20VotingPower);\n\n        uint256 weight = 0;\n\n        for (uint256 i = 0; i < votesByProposals[proposalId].length; i++) {\n            if (votesByProposals[proposalId][i].optionIndex == option) {\n                weight += snapshotedToken.balanceOfAt(\n                    votesByProposals[proposalId][i].voter,\n                    proposal.snapshotId\n                );\n            }\n        }\n\n        return weight;\n    }\n\n    function getBurntTokens() public view returns (uint256) {\n        return burntTokens;\n    }\n\n    function getVotes() public view returns (uint256) {\n        return votes;\n    }\n\n    function getProposalWeight(uint256 proposalId)\n        public\n        view\n        returns (uint256)\n    {\n        Proposal storage proposal = proposals[proposalId];\n        IERC20 token = IERC20(proposal.erc20VotingPower);\n        ERC20Snapshot snapshotedToken =\n            ERC20Snapshot(proposal.erc20VotingPower);\n\n        uint256 weight = 0;\n\n        for (uint256 i = 0; i < votesByProposals[proposalId].length; i++) {\n            weight += snapshotedToken.balanceOfAt(\n                votesByProposals[proposalId][i].voter,\n                proposal.snapshotId\n            );\n        }\n\n        return weight;\n    }\n\n    function finish(uint256 proposalId) public {\n        require(\n            block.number >= proposals[proposalId].blockLimit,\n            \"INVALID_BLOCK_LIMIT\"\n        );\n\n        (uint256 winnerOptionIndex, bytes32 winnerOptionData) =\n            getWinnerOption(proposalId);\n\n        proposals[proposalId].isFinished = true;\n        finishedProposals.push(proposalId);\n\n        if (proposals[proposalId].targetContract != address(0x0)) {\n            IVotilityReceiver target =\n                IVotilityReceiver(proposals[proposalId].targetContract);\n            target.onProposalFinished(\n                msg.sender,\n                proposalId,\n                proposals[proposalId].data,\n                winnerOptionIndex,\n                winnerOptionData\n            );\n        }\n\n        ProposalFinished(\n            proposalId,\n            msg.sender,\n            winnerOptionIndex,\n            winnerOptionData\n        );\n    }\n\n    function getWinnerOption(uint256 proposalId)\n        public\n        view\n        returns (uint256 optionIndex, bytes32 optionValue)\n    {\n        Proposal storage proposal = proposals[proposalId];\n        uint256 winnerOption = 0;\n        bytes32 winnerOptionData = 0;\n        uint256 winningVoteWeight = 0;\n\n        for (uint256 i = 0; i < proposal.options.length; i++) {\n            if (votesByOptions[proposalId][i] > winningVoteWeight) {\n                winningVoteWeight = votesByOptions[proposalId][i];\n                winnerOption = i;\n                winnerOptionData = proposal.options[i];\n            }\n        }\n\n        return (winnerOption, winnerOptionData);\n    }\n\n    function getOptionIndex(uint256 proposalId, bytes32 optionValue)\n        public\n        view\n        returns (uint256)\n    {\n        uint256 optionIndex = 0;\n        bool found = false;\n\n        (optionIndex, found) = _getOptionsIndex(proposalId, optionValue);\n\n        return optionIndex;\n    }\n\n    function getVote(uint256 proposalId, address voter)\n        public\n        view\n        returns (\n            uint256 optionIndex,\n            bytes32 optionValue,\n            uint256 weight,\n            bool hasVoted\n        )\n    {\n        Vote storage v = votesByAddress[voter][proposalId];\n\n        return (v.optionIndex, v.optionValue, v.weight, v.hasVoted);\n    }\n\n    function getVoteCount(uint256 proposalId) public view returns (uint256) {\n        return votesByProposals[proposalId].length;\n    }\n\n    function getBytes32() public view returns (bytes32 result) {\n        return bytes32(uint256(address(this)) << 96);\n    }\n\n    function getAddress(bytes32 input) public pure returns (address result) {\n        return address(uint160(uint256(input)));\n    }\n\n    function getInt(bytes32 input) public pure returns (uint256 result) {\n        return uint256(input);\n    }\n}\n",
  "sourcePath": "/Users/gleisson/Documents/votility/votility-smartcontracts/contracts/VotilityProtocol.sol",
  "compiler": {
    "name": "solc",
    "version": "0.7.4+commit.3f05b770.Emscripten.clang"
  },
  "schemaVersion": "3.3.3",
  "updatedAt": "2021-02-12T20:11:34.370Z",
  "networkType": "ethereum",
  "devdoc": {
    "kind": "dev",
    "methods": {},
    "version": 1
  },
  "userdoc": {
    "kind": "user",
    "methods": {},
    "version": 1
  }
}